:100000000C94B4000C9453010C94D3000C94D100C4
:100010000C94D1000C94D1000C94D1000C94D1001C
:100020000C94D1000C94D1000C94D1000C94D1000C
:100030000C94D1000C94D1000C94D1000C94D100FC
:100040000C94D1000C94D1000C94D1000C94D100EC
:100050000C94D1000C94D1000C94D1000C94D100DC
:100060000C94D1000C94D100008040C020A060E02E
:10007000109050D030B070F0088848C828A868E8C0
:10008000189858D838B878F8048444C424A464E490
:10009000149454D434B474F40C8C4CCC2CAC6CEC60
:1000A0001C9C5CDC3CBC7CFC028242C222A262E260
:1000B000129252D232B272F20A8A4ACA2AAA6AEA60
:1000C0001A9A5ADA3ABA7AFA068646C626A666E630
:1000D000169656D636B676F60E8E4ECE2EAE6EEE00
:1000E0001E9E5EDE3EBE7EFE018141C121A161E118
:1000F000119151D131B171F1098949C929A969E930
:10010000199959D939B979F9058545C525A565E5FF
:10011000159555D535B575F50D8D4DCD2DAD6DEDCF
:100120001D9D5DDD3DBD7DFD038343C323A363E3CF
:10013000139353D333B373F30B8B4BCB2BAB6BEBCF
:100140001B9B5BDB3BBB7BFB078747C727A767E79F
:10015000179757D737B777F70F8F4FCF2FAF6FEF6F
:100160001F9F5FDF3FBF7FFF11241FBECFEFD8E08F
:10017000DEBFCDBF11E0A0E0B1E0E4EBF3E002C0F0
:1001800005900D92A436B107D9F721E0A4E6B1E0BD
:1001900001C01D92A638B207E1F70E9476010C94C7
:1001A000D8010C94000078941F920F920FB60F9212
:1001B00011242F933F934F935F936F937F938F936C
:1001C0009F93AF93BF93EF93FF9380916401882334
:1001D00009F450C08091650196B181509170891BDE
:1001E00034994FC09FE1892380936501319916C0EE
:1001F0000E947F01909179008C3F08F08BEF891766
:1002000008F441C0E0916501F0E0ED5DFE4F8081B2
:10021000E0916501F0E0EA59FE4F8083809179001A
:10022000E0916501F0E0EA59FE4F908186958917CB
:10023000C0F12C9AE0916501F0E0EA59FE4F80810F
:1002400096B19295917001C0880F9A95EAF70E9435
:10025000AB01FF91EF91BF91AF919F918F917F91F2
:100260006F915F914F913F912F910F900FBE0F9023
:100270001F90189586B19091650181709F5F890FDD
:10028000AFCF9FE0B0CF359B06C0E0916501F0E0B5
:10029000ED5FFE4FBCCFE0916501F0E0ED5BFE4FFE
:1002A000B6CF2C98C7CF1F921FB61F9211248F93E1
:1002B0009F93329B0EC080910001882351F01092D1
:1002C0006501109200019F918F911F901FBE1F909A
:1002D0001895339BF8CF809100018823A1F380917A
:1002E000640191E0892780936401EBCF0E94BC01F7
:1002F00091E086B18C70E9F790930001FACF2091DC
:10030000010130910201C901892F992786958695AF
:100310008695A901440F452F441F550B5195842301
:100320009523A9014427550F441F5527B90164E0BF
:10033000769F612D772711244627572784279527F5
:1003400081709927220F331F822B932B90930201E8
:10035000809301010895E82FF0E0E859FF4FE49100
:100360008BB18F709E2F907F892B8BB985B1807F49
:10037000EF708E2B85B9089580EF8AB98FE184B92B
:1003800017B88DB383608DBBE9E6F0E080818860AB
:1003900080837894ECE7F0E0808186668083EAE7EA
:1003A000F0E08081836A8083808180648083089507
:0403B000F894FFCFEF
:1003B40001AB000008101820293139414A525A6211
:1003C4006A737B838B949CA4ACB4BDC5CDD5DEE6A7
:1003D400EEF6FF000000000000000000000000FF37
:1003E400FFFFFFFFFFFFFFFFFFFFFFFFFFFFFF0018
:1003F4000000007F674F3825150902000209152502
:10040400384F677F98B0C7DAEAF6FDFFFDF6EADAFF
:04041400C7B09800D5
:00000001FF
