:100000000C94B4000C9438010C94D3000C94D100DF
:100010000C94D1000C94D1000C94D1000C94D1001C
:100020000C94D1000C94D1000C94D1000C94D1000C
:100030000C94D1000C94D1000C94D1000C94D100FC
:100040000C94D1000C94D1000C94D1000C94D100EC
:100050000C94D1000C94D1000C94D1000C94D100DC
:100060000C94D1000C94D100008040C020A060E02E
:10007000109050D030B070F0088848C828A868E8C0
:10008000189858D838B878F8048444C424A464E490
:10009000149454D434B474F40C8C4CCC2CAC6CEC60
:1000A0001C9C5CDC3CBC7CFC028242C222A262E260
:1000B000129252D232B272F20A8A4ACA2AAA6AEA60
:1000C0001A9A5ADA3ABA7AFA068646C626A666E630
:1000D000169656D636B676F60E8E4ECE2EAE6EEE00
:1000E0001E9E5EDE3EBE7EFE018141C121A161E118
:1000F000119151D131B171F1098949C929A969E930
:10010000199959D939B979F9058545C525A565E5FF
:10011000159555D535B575F50D8D4DCD2DAD6DEDCF
:100120001D9D5DDD3DBD7DFD038343C323A363E3CF
:10013000139353D333B373F30B8B4BCB2BAB6BEBCF
:100140001B9B5BDB3BBB7BFB078747C727A767E79F
:10015000179757D737B777F70F8F4FCF2FAF6FEF6F
:100160001F9F5FDF3FBF7FFF11241FBECFEFD8E08F
:10017000DEBFCDBF11E0A0E0B1E0EAE5F3E002C0F0
:1001800005900D92A23CB107D9F722E0A2ECB1E0B4
:1001900001C01D92A430B207E1F70E9451010C94F6
:1001A000AB010C9400001F920F920FB60F92112416
:1001B0002F933F934F935F936F937F938F939F936F
:1001C000AF93BF93EF93FF938091C2018823C9F14E
:1001D0008091C30196B181509170891B349B38C0C6
:1001E0009FE389238093C301319912C00E94540177
:1001F00090917900891770F1E091C301F0E0EE5B16
:10020000FE4F8081E091C301F0E0EC53FE4F80830C
:10021000E091C301F0E0EC53FE4F80810E94800129
:10022000FF91EF91BF91AF919F918F917F916F91CE
:100230005F914F913F912F910F900FBE0F901F90A4
:10024000189586B19091C30181709F5F890FC6CFC9
:100250009FE1C7CF359B06C0E091C301F0E0EE5FA0
:10026000FE4FCFCFE091C301F0E0EE57FE4FC9CF74
:100270001F921FB61F9211248F939F93329B08C029
:100280001092C3019F918F911F901FBE1F901895D0
:10029000339BF8CF8091C20191E089278093C201FE
:1002A000F1CF0E949101FFCF209100013091010117
:1002B000C901892F9927869586958695A901440FAE
:1002C000452F441F550B519584239523A90144279D
:1002D000550F441F5527B90164E0769F612D77279C
:1002E0001124462757278427952781709927220FA5
:1002F000331F822B932B909301018093000108956B
:10030000E82FF0E0E859FF4FE49185B115B89BB1B3
:100310008E2F807F892B8BB985B1EF70E82BE5B9E3
:10032000089580EF8AB98FE184B917B88DB38360DF
:100330008DBBE9E6F0E080818F6080837894EAE706
:10034000F0E08081887F84608083ECE7F0E080814A
:0A035000806280830895F894FFCFC7
:10035A00AB000004080C1014181C2024282C30347C
:10036A00383C4145494D5155595D6165696D717515
:10037A00797D82868A8E92969A9EA2A6AAAEB2B6F5
:10038A00BABEC3C7CBCFD3D7DBDFE3E7EBEFF3F7D5
:10039A00FBFFFFFFFFFFFFFFFFFFFFFFFFFFFFFF67
:1003AA00FFFFFFFFFFFFFFFFFFFFFFFFFFFFFFFF53
:1003BA00FFFF000000000000000000000000000035
:1003CA000000000000000000000000000000000023
:1003DA000000808C98A5B0BCC7D1DAE2EAF0F6FA40
:1003EA00FDFFFFFFFDFAF6F0EAE2DAD1C7BCB0A5DD
:1003FA00988C8073675A4F43382E251D150F0905AF
:10040A00020000000205090F151D252E38434F5A18
:02041A00677306
:00000001FF
