:100000000C94B4000C9455010C94D3000C94D100C2
:100010000C94D1000C94D1000C94D1000C94D1001C
:100020000C94D1000C94D1000C94D1000C94D1000C
:100030000C94D1000C94D1000C94D1000C94D100FC
:100040000C94D1000C94D1000C94D1000C94D100EC
:100050000C94D1000C94D1000C94D1000C94D100DC
:100060000C94D1000C94D100008040C020A060E02E
:10007000109050D030B070F0088848C828A868E8C0
:10008000189858D838B878F8048444C424A464E490
:10009000149454D434B474F40C8C4CCC2CAC6CEC60
:1000A0001C9C5CDC3CBC7CFC028242C222A262E260
:1000B000129252D232B272F20A8A4ACA2AAA6AEA60
:1000C0001A9A5ADA3ABA7AFA068646C626A666E630
:1000D000169656D636B676F60E8E4ECE2EAE6EEE00
:1000E0001E9E5EDE3EBE7EFE018141C121A161E118
:1000F000119151D131B171F1098949C929A969E930
:10010000199959D939B979F9058545C525A565E5FF
:10011000159555D535B575F50D8D4DCD2DAD6DEDCF
:100120001D9D5DDD3DBD7DFD038343C323A363E3CF
:10013000139353D333B373F30B8B4BCB2BAB6BEBCF
:100140001B9B5BDB3BBB7BFB078747C727A767E79F
:10015000179757D737B777F70F8F4FCF2FAF6FEF6F
:100160001F9F5FDF3FBF7FFF11241FBECFEFD8E08F
:10017000DEBFCDBF11E0A0E0B1E0E0EAF3E002C0F5
:1001800005900D92A236B107D9F721E0A2E6B1E0C1
:1001900001C01D92A438B207E1F70E946E010C94D1
:1001A000CE010C9400001F920F920FB60F921124F3
:1001B0002F933F934F935F936F937F938F939F936F
:1001C000AF93BF93EF93FF9380916201882309F46B
:1001D00053C09091630186B181709250890F349B16
:1001E00052C09FE1892380936301319916C00E9418
:1001F0007101909179008C3F08F08BEF891708F41A
:1002000044C0E0916301F0E0EE5DFE4F8081E0913B
:100210006301F0E0EC59FE4F808380917900E0911A
:100220006301F0E0EC59FE4F908186958917D8F173
:100230002C9AE0916301F0E0EC59FE4F808196B179
:1002400092959F7021E09227917001C0880F9A9536
:10025000EAF70E949D01FF91EF91BF91AF919F91AD
:100260008F917F916F915F914F913F912F910F905F
:100270000FBE0F901F90189596B1809163018E5F0D
:100280009170891BACCF9FE0ADCF359B06C0E0914C
:100290006301F0E0EE5FFE4FB9CFE0916301F0E063
:1002A000EE5BFE4FB3CF2C98C4CF1F921FB61F92A8
:1002B00011248F939F93329B08C0109263019F91EA
:1002C0008F911F901FBE1F901895339BF8CF809180
:1002D000620191E0892780936201F1CF0E94B2010F
:1002E000FFCF2091000130910101C901892F992789
:1002F000869586958695A901440F452F441F550B79
:10030000519584239523A9014427550F441F552750
:10031000B90164E0769F612D77271124462757277E
:100320008427952781709927220F331F822B932BC7
:1003300090930101809300010895E82FF0E0E859BF
:10034000FF4FE4918BB18F708BB985B1807F85B9F8
:100350009BB18E2F807F892B8BB985B1EF70E82BF5
:10036000E5B9089580EF8AB98FE184B917B88DB3E4
:1003700083608DBBE9E6F0E08081886080837894BB
:10038000ECE7F0E0808186668083EAE7F0E0808138
:10039000846A80838081806480830895F894FFCF8D
:1003A000AB000008101820293139414A525A626ABC
:1003B000737B838B949CA4ACB4BDC5CDD5DEE6EE37
:1003C000F6FF000000000000000000000000FFFF3A
:1003D000FFFFFFFFFFFFFFFFFFFFFFFFFFFF00002B
:1003E00000008098B0C7DAEAF6FDFFFDF6EADAC74A
:1003F000B09880674F382515090200020915253885
:020400004F6744
:00000001FF
