:100000000C94B4000C9407010C94D3000C94D10010
:100010000C94D1000C94D1000C94D1000C94D1001C
:100020000C94D1000C94D1000C94D1000C94D1000C
:100030000C94D1000C94D1000C94D1000C94D100FC
:100040000C94D1000C94D1000C94D1000C94D100EC
:100050000C94D1000C94D1000C94D1000C94D100DC
:100060000C94D1000C94D100008040C020A060E02E
:10007000109050D030B070F0088848C828A868E8C0
:10008000189858D838B878F8048444C424A464E490
:10009000149454D434B474F40C8C4CCC2CAC6CEC60
:1000A0001C9C5CDC3CBC7CFC028242C222A262E260
:1000B000129252D232B272F20A8A4ACA2AAA6AEA60
:1000C0001A9A5ADA3ABA7AFA068646C626A666E630
:1000D000169656D636B676F60E8E4ECE2EAE6EEE00
:1000E0001E9E5EDE3EBE7EFE018141C121A161E118
:1000F000119151D131B171F1098949C929A969E930
:10010000199959D939B979F9058545C525A565E5FF
:10011000159555D535B575F50D8D4DCD2DAD6DEDCF
:100120001D9D5DDD3DBD7DFD038343C323A363E3CF
:10013000139353D333B373F30B8B4BCB2BAB6BEBCF
:100140001B9B5BDB3BBB7BFB078747C727A767E79F
:10015000179757D737B777F70F8F4FCF2FAF6FEF6F
:100160001F9F5FDF3FBF7FFF11241FBECFEFD8E08F
:10017000DEBFCDBF11E0A0E0B1E0E8E2F3E002C0F5
:1001800005900D92A234B107D9F721E0A2E4B1E0C5
:1001900001C01D92A434B207E1F70E941B010C9428
:1001A00092010C9400000F920FB60F921F9211242F
:1001B0002F933F938F939F93EF93FF93359B25C08E
:1001C00090E0809143018F5F890F8F73809343018B
:1001D00086B126B1E09143018F7090E1299F900193
:1001E0001124820F877EF0E0EF5FFE4F9081892718
:1001F00080934201FF91EF919F918F913F912F91B9
:100200001F900F900FBE0F90189593E0DACF1F92BA
:100210001FB61F9211248F93309B08C0809100015C
:10022000882321F010924301109200018F911F90BA
:100230001FBE1F9018950E947601FF24F394C0E022
:10024000DFEF0EEF10E0309BF0920001209179007B
:1002500030E0C9018F57910920583109039710F4F4
:1002600020E030E080914201082E000C990B281705
:100270003907B4F42C9A349B1DC080914201A90126
:10028000480F511D87FD5A95CA014038510554F059
:100290009801241B350BC90180580E946501D3CFFA
:1002A0002C98E9CF40385F4FBCF7AE01481B590B83
:1002B000CA01F2CF409142014203C001439F900D19
:1002C0001124892F990F990BE7CFE82FF0E0E85917
:1002D000FF4FE4918BB18F709E2F907F892B8BB94C
:1002E00085B1807FEF708E2B85B9089580EF8AB934
:1002F0008FE184B917B88DB383608DBBE9E6F0E078
:100300008081886080837894ECE7F0E08081866665
:100310008083EAE7F0E08081836A80838081806463
:0803200080830895F894FFCFDB
:1003280001000C1925313D48525B646B71777B7E67
:100338007F7F7F7C79746E675F574D42372B1F1321
:1003480006F9ECE0D4C8BDB2A8A098918B8683804A
:1003580080808184888E949BA4ADB7C2CEDAE6F300
:02036800FF0094
:00000001FF
