:100000000C94B4000C94F4000C94D3000C94D10024
:100010000C94D1000C94D1000C94D1000C94D1001C
:100020000C94D1000C94D1000C94D1000C94D1000C
:100030000C94D1000C94D1000C94D1000C94D100FC
:100040000C94D1000C94D1000C94D1000C94D100EC
:100050000C94D1000C94D1000C94D1000C94D100DC
:100060000C94D1000C94D100008040C020A060E02E
:10007000109050D030B070F0088848C828A868E8C0
:10008000189858D838B878F8048444C424A464E490
:10009000149454D434B474F40C8C4CCC2CAC6CEC60
:1000A0001C9C5CDC3CBC7CFC028242C222A262E260
:1000B000129252D232B272F20A8A4ACA2AAA6AEA60
:1000C0001A9A5ADA3ABA7AFA068646C626A666E630
:1000D000169656D636B676F60E8E4ECE2EAE6EEE00
:1000E0001E9E5EDE3EBE7EFE018141C121A161E118
:1000F000119151D131B171F1098949C929A969E930
:10010000199959D939B979F9058545C525A565E5FF
:10011000159555D535B575F50D8D4DCD2DAD6DEDCF
:100120001D9D5DDD3DBD7DFD038343C323A363E3CF
:10013000139353D333B373F30B8B4BCB2BAB6BEBCF
:100140001B9B5BDB3BBB7BFB078747C727A767E79F
:10015000179757D737B777F70F8F4FCF2FAF6FEF6F
:100160001F9F5FDF3FBF7FFF11241FBECFEFD8E08F
:10017000DEBFCDBF11E0A0E0B1E0EEEFF2E002C0E3
:1001800005900D92A234B107D9F721E0A2E4B1E0C5
:1001900001C01D92A434B207E1F70E9408010C943B
:1001A0007D010C9400008F938FB78F939F93EF93F3
:1001B000FF93359B17C090E0809143018F5F890FBB
:1001C0008F7380934301E0914301F0E0EF5FFE4FB6
:1001D000808180934201FF91EF919F918F918FBF1A
:1001E0008F91189593E0E8CF1F921FB61F921124AC
:1001F0008F93309B08C080910001882321F01092DA
:100200004301109200018F911F901FBE1F901895FF
:100210000E946101D1E0309BD0930001C6B186B14C
:100220008F700E944A0190917900CF702C2F280F77
:100230002E7729272058330B349B1AC08091430115
:10024000F901E80FF11DEF73FF27EF5FFE4F80818B
:10025000082E000C990B40914201042E000C550B06
:1002600024173507ACF42C9A80580E945001D3CF44
:10027000409142014203C001439F900D112497FF1A
:1002800002C081589F4F880F892F881F990BE3CF99
:100290002C98EACFE82FF0E0E859FF4F84910895B9
:1002A000E82FF0E0E859FF4FE4918BB18F709E2F5B
:1002B000907F892B8BB985B1807FEF708E2B85B9AC
:1002C000089580EF8AB98FE184B917B88DB3836040
:1002D0008DBBE9E6F0E08081886080837894ECE76C
:1002E000F0E0808186668083EAE7F0E08081836ABF
:0E02F00080838081806480830895F894FFCF1E
:1002FE0001000C1925313D48525B646B71777B7E92
:10030E007F7F7F7C79746E675F574D42372B1F134B
:10031E0006F9ECE0D4C8BDB2A8A098918B86838173
:10032E0081818284888E949BA4ADB7C2CEDAE6F327
:02033E00FF00BE
:00000001FF
