:100000000C94B4000C94D1000C94D3000C94D10047
:100010000C94D1000C94D1000C94D1000C94D1001C
:100020000C94D1000C94D1000C94D1000C94D1000C
:100030000C94D1000C94D1000C94D1000C94D100FC
:100040000C94D1000C94D1000C94D1000C94D100EC
:100050000C94D1000C94D1000C94D1000C94D100DC
:100060000C94D1000C94D100008040C020A060E02E
:10007000109050D030B070F0088848C828A868E8C0
:10008000189858D838B878F8048444C424A464E490
:10009000149454D434B474F40C8C4CCC2CAC6CEC60
:1000A0001C9C5CDC3CBC7CFC028242C222A262E260
:1000B000129252D232B272F20A8A4ACA2AAA6AEA60
:1000C0001A9A5ADA3ABA7AFA068646C626A666E630
:1000D000169656D636B676F60E8E4ECE2EAE6EEE00
:1000E0001E9E5EDE3EBE7EFE018141C121A161E118
:1000F000119151D131B171F1098949C929A969E930
:10010000199959D939B979F9058545C525A565E5FF
:10011000159555D535B575F50D8D4DCD2DAD6DEDCF
:100120001D9D5DDD3DBD7DFD038343C323A363E3CF
:10013000139353D333B373F30B8B4BCB2BAB6BEBCF
:100140001B9B5BDB3BBB7BFB078747C727A767E79F
:10015000179757D737B777F70F8F4FCF2FAF6FEF6F
:100160001F9F5FDF3FBF7FFF11241FBECFEFD8E08F
:10017000DEBFCDBF11E0A0E0B1E0EAE0F3E002C0F5
:1001800005900D92A034B107D9F721E0A0E4B1E0C9
:1001900001C01D92A134B207E1F70E9449010C94FD
:1001A00083010C9400001F920F920FB60F9211243E
:1001B0002F933F934F935F936F937F938F939F936F
:1001C000AF93BF93CF93EF93FF93359B53C090E0D2
:1001D000809140018F5F890F8F7380934001C6B17A
:1001E00086B18F700E944C01E0914001CF70C80F22
:1001F000F0E0E050FF4F80812C2F282740917900BC
:1002000050E0CA018F57910940585109039710F4E3
:1002100050E040E0022E000C330B4217530764F508
:100220002C9A349B2BC0C901840F951F2EEF30E010
:100230008038910534F480385FEF950734F420E07E
:100240003FEFA901481B590BCA0180580E94520177
:10025000FF91EF91CF91BF91AF919F918F917F913E
:100260006F915F914F913F912F910F900FBE0F9023
:100270001F90189593E0ACCF2C98D3CF249FC0014A
:10028000259F900D349F900D1124892F990F990B64
:10029000DCCF0E946701FFCFE82FF0E0E859FF4F65
:1002A00084910895E82FF0E0E859FF4FE4918BB175
:1002B0008F708BB985B1807F85B99BB18E2F807F80
:1002C000892B8BB985B1EF70E82BE5B9089580EFE4
:1002D0008AB98FE184B917B88DB383608DBBE9E625
:1002E000F0E08081886080837894ECE7F0E08081A2
:1002F00086668083EAE7F0E08081846A808380817B
:0A030000806480830895F894FFCF15
:10030A00000C1925313D48525B646B71777B7E7F07
:10031A007F7F7C79746E675F574D42372B1F1306B8
:10032A00F9ECE0D4C8BDB2A8A098918B86838080EE
:10033A00808184888E949BA4ADB7C2CEDAE6F3FF9F
:00000001FF
