:100000000C94B4000C94D1000C94D3000C94D10047
:100010000C94D1000C94D1000C94D1000C94D1001C
:100020000C94D1000C94D1000C94D1000C94D1000C
:100030000C94D1000C94D1000C94D1000C94D100FC
:100040000C94D1000C94D1000C94D1000C94D100EC
:100050000C94D1000C94D1000C94D1000C94D100DC
:100060000C94D1000C94D100008040C020A060E02E
:10007000109050D030B070F0088848C828A868E8C0
:10008000189858D838B878F8048444C424A464E490
:10009000149454D434B474F40C8C4CCC2CAC6CEC60
:1000A0001C9C5CDC3CBC7CFC028242C222A262E260
:1000B000129252D232B272F20A8A4ACA2AAA6AEA60
:1000C0001A9A5ADA3ABA7AFA068646C626A666E630
:1000D000169656D636B676F60E8E4ECE2EAE6EEE00
:1000E0001E9E5EDE3EBE7EFE018141C121A161E118
:1000F000119151D131B171F1098949C929A969E930
:10010000199959D939B979F9058545C525A565E5FF
:10011000159555D535B575F50D8D4DCD2DAD6DEDCF
:100120001D9D5DDD3DBD7DFD038343C323A363E3CF
:10013000139353D333B373F30B8B4BCB2BAB6BEBCF
:100140001B9B5BDB3BBB7BFB078747C727A767E79F
:10015000179757D737B777F70F8F4FCF2FAF6FEF6F
:100160001F9F5FDF3FBF7FFF11241FBECFEFD8E08F
:10017000DEBFCDBF15E0A0E0B1E0E4EAF2E002C0EE
:1001800005900D92A030B107D9F725E0A0E0B5E0C9
:1001900001C01D92A130B207E1F70E9422010C9428
:1001A00050010C9400001F920F920FB60F92112471
:1001B0002F933F934F935F936F937F938F939F936F
:1001C000AF93BF93EF93FF9326B18091000530E08A
:1001D00094E0359527959A95E1F72370332741E010
:1001E00050E002C0559547952A95E2F78F5F840F3E
:1001F000807480930005E6B180910005EF7090E473
:10020000E99FF0011124E050FF4FE80FF11D8081BC
:10021000909179009817A0F42C9A0E942501FF91E3
:10022000EF91BF91AF919F918F917F916F915F916E
:100230004F913F912F910F900FBE0F901F901895E7
:100240002C98EBCF0E943601FFCFE82FF0E0E85961
:10025000FF4FE49185B115B89BB18E2F807F892B1C
:100260008BB985B1EF70E82BE5B9089580EF8AB9B5
:100270008FE184B917B88DB383608DBBE9E6F0E0F8
:1002800080818F6080837894EAE7F0E08081887FC6
:1002900084608083ECE7F0E0808180628083089551
:0402A000F894FFCF00
:1002A400C1FEE5DBE6DCD4D9D2CACDC8C0C1BEB636
:1002B400B6B4ACABA9A2A09F9895948E8A89847F8A
:1002C4007F7A7574706A69665F5E5C5553524A48FA
:1002D40048403D3E3631342C252A22182319003D4E
:1002E400A0B89D8C8F8B8997A3AEC2D5E1F0FCFE9C
:1002F400FEFCF0E1D5C2AEA397898B8F8C9DB8A08C
:100304005E4661726F7375675B503C291D0E020077
:1003140000020E1D293C505B6775736F7261465E67
:10032400A1D0DFE2E5E8EDEFEAE9F3FBFAFAFEFC3F
:10033400F6F2ECE1D8D3CDC5BFB7B0A99F8F817ECB
:10034400807D6F5F554E473F39312B261D120C08B7
:1003540002000404030B15140F1116191C1F2E5D43
:1003640099C0CFDCF1FEF4E0D6D6D0C3BAB8B5B0AC
:10037400ABA8A29B9B9E998C899194877B818C8747
:1003840077727D83776A6D7572656063635C5653BB
:100394004E4946443B2E28281E0A000D222F3E6556
:1003A400A0C8C3B9CEF3FCE1C9D4ECE2B798A7CA9C
:1003B400D0B4A2B2C8BC958196AFA1766074908C7B
:1003C400726E8A9E885D4F687D6942364C5C4A2E07
:1003D400345766471C122A351D020B30453B365EE6
:1003E400C1EC99546DB2E0DAB5ABC8D3B5988F853A
:1003F400746765768E968F86735F70A7DEFCF3B0A4
:100404004E0B0220578E9F8B786F68708899978A5D
:10041400796F66492B365349241E4C91AA65123DC7
:10042400BEFEDCB0AEB2A8ACB8A38189A797696A56
:100434009599716A92A48D81939A8E8D824A1948F6
:10044400B6E5B47C7170646B7D715A6C948D65698A
:1004540094956757757D5B4652564C504E2200402A
:10046400B9FBEFCFC0B7ACA6A6A7A39994999D9862
:10047400908E9194918C8A89898B898280848480DE
:100484007E7A7A7E7C7573757574726D6A6D706E22
:100494006661656A655B57585852473E2F0F03459E
:1004A40093ABB2B8BBBAC1C8C9CCD0D1D8DDD9E0FE
:1004B400F7FCE7D3C4AB9483726A6D7275808C8742
:1004C40077727E898C91948C7B6A533A2B1702073E
:1004D4001E2521262D2E3235363D4443464C536B82
:1004E400A8CCBBB8C5D4DED0CAF1F4B1A2E1E8A966
:1004F40097BCC6A38693A89C8E9A9386A2A3676092
:100504009E975B5C786B647062566B785B3842676D
:1005140055161D5C4D0A0D342E202A394643325699
:10052400C4FED4C2E4F6EFEEF4F9F5E6DAD7DADB8A
:10053400CEB7B3BBAC9AA2A69598A8A08A868983A5
:100544007B7578745E566669585C6452434B4730D9
:10055400232427241809050A100F081A3C2A003AF4
:10056400B8E1BEC6F5F8DAC0A99A9B9C9BA5A28BFC
:1005740082929D927E737C9DCBE7D1945A35315CF7
:10058400A2CDC9A46A2D173361828B806C616C7C07
:10059400735C5963626364553E24060938401D4602
:1005A400A1D1E4F2FDFDFBFBF5EAE0D4C2AFA098D3
:1005B400948F8A8A90989D9B9897938E8E8C837E35
:1005C400807B7270706B67666361666E74746F6A49
:1005D400665E4F3C2A1E1409030301010C1A2D5DAB
:1005E400BDFDE0AD9BA4BED1CEC5C5B69C9EB8BC36
:1005F400A598968E8584837B726A6A788274616D0D
:10060400919D8A7C8694948C837B7A7970686659F0
:1006140042466062483939302D405A63511E0141C7
:10062400AAB17595F0E699898B6471D2F3ADA3EE06
:10063400EDA1AAEFCE6C5E868394E1EC9172B0AA30
:10064400544E8C6D121D6A7B78A092300F545D114C
:10065400105B510B2C8D9A737565180E69894D5476
:10066400838C959DA5ADB5BBC2C7CCD0D4D6D8D903
:10067400D9D8D6D4D0CCC7C2BBB5ADA59D958C83F3
:100684007B726961595149433C37322E2A28262509
:100694002526282A2E32373C434951596169727BF9
:00000001FF
