:100000000C94B4000C9486010C94D3000C94D10091
:100010000C94D1000C94D1000C94D1000C94D1001C
:100020000C94D1000C94D1000C94D1000C94D1000C
:100030000C94D1000C94D1000C94D1000C94D100FC
:100040000C94D1000C94D1000C94D1000C94D100EC
:100050000C94D1000C94D1000C94D1000C94D100DC
:100060000C94D1000C94D100008040C020A060E02E
:10007000109050D030B070F0088848C828A868E8C0
:10008000189858D838B878F8048444C424A464E490
:10009000149454D434B474F40C8C4CCC2CAC6CEC60
:1000A0001C9C5CDC3CBC7CFC028242C222A262E260
:1000B000129252D232B272F20A8A4ACA2AAA6AEA60
:1000C0001A9A5ADA3ABA7AFA068646C626A666E630
:1000D000169656D636B676F60E8E4ECE2EAE6EEE00
:1000E0001E9E5EDE3EBE7EFE018141C121A161E118
:1000F000119151D131B171F1098949C929A969E930
:10010000199959D939B979F9058545C525A565E5FF
:10011000159555D535B575F50D8D4DCD2DAD6DEDCF
:100120001D9D5DDD3DBD7DFD038343C323A363E3CF
:10013000139353D333B373F30B8B4BCB2BAB6BEBCF
:100140001B9B5BDB3BBB7BFB078747C727A767E79F
:10015000179757D737B777F70F8F4FCF2FAF6FEF6F
:100160001F9F5FDF3FBF7FFF11241FBECFEFD8E08F
:10017000DEBFCDBF13E0A0E0B1E0EAECF3E002C0E7
:1001800005900D92A032B107D9F723E0A0E2B3E0C9
:1001900001C01D92A332B207E1F70E94A9010C949D
:1001A000E3010C9400001F920F920FB60F921124DE
:1001B0002F933F934F935F936F937F938F939F936F
:1001C000AF93BF93EF93FF9396B193709F5F20918E
:1001D000790022952F704091790050E05595479510
:1001E000477080912103882379F180912203891B34
:1001F0008F718093220380912203811104C085B105
:1002000090E1892785B986B190E054E0959587956E
:100210005A95E1F78370992782309105E1F130E03A
:100220008330910509F444C0019791F08091220335
:10023000F90135E0EE0FFF1F3A95E1F7E050FF4F6F
:10024000E80FF11D808114C080912203890FD0CF67
:100250008091220380912203F90145E0EE0FFF1FF8
:100260004A95E1F7E050FF4FE80FF11D8081887F4C
:100270000E94B201FF91EF91BF91AF919F918F9139
:100280007F916F915F914F913F912F910F900FBE92
:100290000F901F901895809122038695869584175C
:1002A00028F0E22FF0E080912203C3CF2F5FF9CF37
:1002B0005091220380912203F90195E0EE0FFF1F78
:1002C0009A95E1F7E05EFE4FE80FF11D88E090E0BF
:1002D000841B91096FEF70E0DB0102C0B595A79513
:1002E0008A95E2F780818A23F90125E0EE0FFF1F4E
:1002F0002A95E1F7E050FF4FE50FF11D01C0660FB1
:100300004A95EAF790819623890FB2CF1F921FB6C4
:100310001F9211248F939F93329B0EC080912003D4
:10032000882351F010922203109220039F918F9105
:100330001F901FBE1F901895339BF8CF809120030C
:100340008823A1F38091210391E0892780932103E1
:10035000EBCF0E94C70191E086B18C70E9F79093D2
:100360002003FACFE82FF0E0E859FF4FE4918BB17A
:100370008F708BB985B1807F85B99BB18E2F807FBF
:10038000892B8BB985B1EF70E82BE5B9089580EF23
:100390008AB98FE184B917B88DB383608DBBE9E664
:1003A000F0E08081886080837894ECE7F0E08081E1
:1003B00086668083EAE7F0E08081836A80838081BB
:0A03C000806480830895F894FFCF55
:1003CA00899AAAB9C5CFD5D9D8D5CEC4B7A898879E
:1003DA0075645445392F29252629303A47566677B8
:1003EA00F5D9E2D7CCCBC0B9B6ABA5A095918A8096
:1003FA007C746C685E575348433E31302919221881
:10040A00B78F8D91A9CFEAFEFEE6CAA78D8F93B169
:10041A00476F716D552F140000183457716F6B4D6B
:10042A00C3E1E7EFE8FAF9FDF3E5D5C8BAAC957E82
:10043A007F6551423428160A000507160F181E4711
:10044A00B4D6FCE7D6C8B8B2A99D9E918E8D7C8C95
:10045A0071836D736A615F544B46332812062B53BE
:10046A00BEBAE6EDCCEB9FBEC0A8C583A887699249
:10047A006B9A6C5C75365A37495710350922414ACE
:10048A00EE6398E2A9D4A08A6B6E958A6491F4D03F
:10049A001D127C94726B949072572D521B78881B94
:1004AA00F3BCB3A8AF80A4619F65A3819A8C632A29
:1004BA00E08C72667A5F97609D568049574C361B6E
:1004CA00EDD9BBA7A79D979B8E948D898B84838238
:1004DA007B7C7874746F6B6F62695F5855411C221C
:1004EA00A5B5BAC6CAD0DCDBFED9B5896B717B8BE0
:1004FA0072868F907142200125242E353A444A5F34
:10050A00C7B6CED8E1CCC8C1ADB38AA49587AC56DC
:10051A00A653736D5678425B2B47202822344740F6
:10052A00F8C1F3EDF7ECD7DCBFB99EA893A686868F
:10053A007678556B575B473923260E08110F391405
:10054A00E0BAFEC99E9DA1948A98758EE1AD404697
:10055A00C3B54124788663786460615C2F014628BC
:10056A00C3ECFEFBEEDAB69A918A959D97908E7F40
:10057A007E706D67616B746C6243210D03001547D1
:10058A00F2BE9ECCC8BF98BF9A92847E6C727C647D
:10059A009D7E90907E7A6A6140663C343762331D54
:1005AA00BE7AF98674ACCAD2BCDA8D7984F76EBB8E
:1005BA0042880A7D9057372D41216C7F74028D4203
:1005CA00899AAAB9C5CFD5D9D8D5CEC4B7A898879C
:1005DA0075645445392F29252629303A47566677B6
:00000001FF
