:100000000C94B4000C9462010C94D3000C94D100B5
:100010000C94D1000C94D1000C94D1000C94D1001C
:100020000C94D1000C94D1000C94D1000C94D1000C
:100030000C94D1000C94D1000C94D1000C94D100FC
:100040000C94D1000C94D1000C94D1000C94D100EC
:100050000C94D1000C94D1000C94D1000C94D100DC
:100060000C94D1000C94D100008040C020A060E02E
:10007000109050D030B070F0088848C828A868E8C0
:10008000189858D838B878F8048444C424A464E490
:10009000149454D434B474F40C8C4CCC2CAC6CEC60
:1000A0001C9C5CDC3CBC7CFC028242C222A262E260
:1000B000129252D232B272F20A8A4ACA2AAA6AEA60
:1000C0001A9A5ADA3ABA7AFA068646C626A666E630
:1000D000169656D636B676F60E8E4ECE2EAE6EEE00
:1000E0001E9E5EDE3EBE7EFE018141C121A161E118
:1000F000119151D131B171F1098949C929A969E930
:10010000199959D939B979F9058545C525A565E5FF
:10011000159555D535B575F50D8D4DCD2DAD6DEDCF
:100120001D9D5DDD3DBD7DFD038343C323A363E3CF
:10013000139353D333B373F30B8B4BCB2BAB6BEBCF
:100140001B9B5BDB3BBB7BFB078747C727A767E79F
:10015000179757D737B777F70F8F4FCF2FAF6FEF6F
:100160001F9F5FDF3FBF7FFF11241FBECFEFD8E08F
:10017000DEBFCDBF12E0A0E0B1E0E2ECF4E002C0EF
:1001800005900D92A430B107D9F722E0A4E0B2E0C7
:1001900001C01D92A730B207E1F70E94F7010C944D
:1001A0005F020C9400001F920F920FB60F92112461
:1001B0002F933F934F935F936F937F938F939F936F
:1001C000AF93BF93EF93FF93809104028F5F80936F
:1001D0000402803289F4319907C0809179008295B8
:1001E0008695877080930602329904C080917900C9
:1001F000809305021092040280910402811104C0D0
:1002000085B190E1892785B9E091060280910402C9
:1002100030E2E39FF0011124EE5FFE4FE80FF11D85
:100220008081359B4BC0482F440F209105022095BB
:10023000E09106028091040234E0839FC001112402
:100240008F71992730E2E39FF0011124EE5FFE4F9A
:10025000E80FF91F9081291778F5921BE0910602AB
:100260002091040230E0220F331F2F71332780E2E8
:10027000E89FF0011124EE5FFE4FE20FF31F808133
:1002800020910502880F840F990F890F2B5B82271D
:1002900034990E942E02FF91EF91BF91AF919F91EF
:1002A0008F917F916F915F914F913F912F910F901F
:1002B0000FBE0F901F90189590E0D0CF909105023F
:1002C0008927E6CF1F920F920FB60F921124EF925B
:1002D000FF920F931F932F933F934F935F936F93CF
:1002E0007F938F939F93AF93BF93CF93DF93EF93BE
:1002F000FF93309B08C080910001882321F0109269
:10030000000110920402339B56C0809101018823A2
:1003100009F451C010920101C4E0D0E00E94020231
:10032000492F90E080E0BE0125E0660F771F2A95F7
:10033000E1F76E577F4F9E012F5F3F4F27703327A6
:1003400055E0220F331F5A95E1F72E5F3E4FFE0115
:10035000E770FF27A5E0EE0FFF1FAA95E1F7DF0189
:10036000AE5FBE4F7D01493C68F0DB01A80FB91FAD
:100370005C918701080F191FF8011081510F540F6C
:100380005C9310C0453B70F18B01080F191FD80119
:100390005C91D901A80FB91FAC915695A6955A0F3B
:1003A000F8015083019680329105E9F62196CC3010
:1003B000D10509F0B3CFFF91EF91DF91CF91BF91BC
:1003C000AF919F918F917F916F915F914F913F91ED
:1003D0002F911F910F91FF90EF900F900FBE0F90F4
:1003E0001F901895DB01A80FB91F5C91C8CF0E9420
:1003F000430281E0309B809300013399FBCF8093CF
:100400000101F8CF2091020230910302C901892F26
:100410009927869586958695A901440F452F441FF7
:10042000550B519584239523A9014427550F441F4B
:100430005527B90164E0769F612D7727112446275F
:1004400057278427952781709927220F331F822BE6
:10045000932B90930302809302020895E82FF0E01B
:10046000E859FF4FE4918BB18F708BB985B1807FD4
:1004700085B99BB18E2F807F892B8BB985B1EF70A9
:10048000E82BE5B9089580EF8AB98FE184B917B8F0
:100490008DB383608DBBE9E6F0E080818860808366
:1004A0007894ECE7F0E0808186668083EAE7F0E00C
:1004B0008081846A80838081806480830895F89439
:0204C000FFCF6C
:1004C20001018098B0C6D9E9F5FCFFFCF5E9D9C66F
:1004D200B09880674F3926160A0301030A16263997
:1004E2004F674054687B8C9CAAB6BFC6CACCCCCBA3
:1004F200C8C4BFAB9784736355494039353333342D
:10050200373B00102030405060708090A0B0C0D0C7
:10051200E0F0FFF0E0D0C0B0A090807060504030BA
:100522002010000C1824303C4854606C7884909C55
:10053200A8B4FFF3E7DBCFC3B7AB9F93877B6F63AF
:10054200574B00081018202830384048505860682F
:100552007078FFF7EFE7DFD7CFC7BFB7AFA79F9797
:100562008F87000000000000000000000000000073
:100572000000FFFFFFFFFFFFFFFFFFFFFFFFFFFF87
:10058200FFFF0004080C1014181C2024282C3034FF
:10059200383CBFC3C7CBCFD3D7DBDFE3E7EBEFF307
:1005A200F7FB00081018202830384048505860687F
:1005B200707880889098A0A8B0B8C0C8D0D8E0E879
:0405C200F0F8AB00A2
:00000001FF
