:100000000C94B4000C94F6010C94D3000C94D10021
:100010000C94D1000C94D1000C94D1000C94D1001C
:100020000C94D1000C94D1000C94D1000C94D1000C
:100030000C94D1000C94D1000C94D1000C94D100FC
:100040000C94D1000C94D1000C94D1000C94D100EC
:100050000C94D1000C94D1000C94D1000C94D100DC
:100060000C94D1000C94D100008040C020A060E02E
:10007000109050D030B070F0088848C828A868E8C0
:10008000189858D838B878F8048444C424A464E490
:10009000149454D434B474F40C8C4CCC2CAC6CEC60
:1000A0001C9C5CDC3CBC7CFC028242C222A262E260
:1000B000129252D232B272F20A8A4ACA2AAA6AEA60
:1000C0001A9A5ADA3ABA7AFA068646C626A666E630
:1000D000169656D636B676F60E8E4ECE2EAE6EEE00
:1000E0001E9E5EDE3EBE7EFE018141C121A161E118
:1000F000119151D131B171F1098949C929A969E930
:10010000199959D939B979F9058545C525A565E5FF
:10011000159555D535B575F50D8D4DCD2DAD6DEDCF
:100120001D9D5DDD3DBD7DFD038343C323A363E3CF
:10013000139353D333B373F30B8B4BCB2BAB6BEBCF
:100140001B9B5BDB3BBB7BFB078747C727A767E79F
:10015000179757D737B777F70F8F4FCF2FAF6FEF6F
:100160001F9F5FDF3FBF7FFF11241FBECFEFD8E08F
:10017000DEBFCDBF11E0A0E0B1E0ECE8F4E002C0EA
:1001800005900D92A030B107D9F725E0A0E0B1E0CD
:1001900001C01D92A430B207E1F70E9410020C9436
:1001A00044020C9400001F920F920FB60F9211247C
:1001B0002F933F934F935F936F937F938F939F936F
:1001C000AF93BF93EF93FF932091790027FD9AC0DF
:1001D00080E8821B282F482F50E08FEF90E0841B8F
:1001E000950B481759070CF48EC02FEF309979C042
:1001F000349BA0C08091030181110DC081E08093E8
:10020000030180910001909101019695879590934B
:10021000010180930001319935C040910001509156
:100220000101CA01969587958C5F9E4FFC018081E4
:1002300040FF6FC08F7090E035996DC031E002C013
:10024000880F991F3A95E2F74FEF50E0421B510992
:10025000841795070CF061C0820F82958F704091D2
:100260000001509101019A0136952795F901EC5F43
:10027000FE4F908140FF53C0907F892B2C5F3E4FF3
:10028000F901808380910001909101012091020188
:10029000222309F449C0019697709093010180933D
:1002A000000180910001909101018C3F974030F452
:1002B00080910001909101010497C0F52C9A209142
:1002C000000130910101C901969587958C5F9E4F81
:1002D000FC01808120FF2CC08F708295807F0E945E
:1002E0001302FF91EF91BF91AF919F918F917F91F9
:1002F0006F915F914F913F912F910F900FBE0F9093
:100300001F9018952058220F243008F06FCF20E05E
:100310006DCF82958FCF33E092CF8FEF9ECF9F70BE
:100320008295807F890FAACF0197B6CF2C98C7CF2F
:100330008295D2CF80910301882361F0109203014E
:100340008091000190910101880F991F9093010104
:1003500080930001319920C0E0910001F0910101EA
:10036000EC5FFE4F808190E035993AC032E002C0E8
:10037000959587953A95E2F7E0910001F09101019A
:100380004FEF50E0421B5109280F841795070CF0DE
:100390002FEFEC5FFE4F20838091000190910101CF
:1003A000209102012223F1F00196937090930101B4
:1003B0008093000180910001909101018C3F934056
:1003C00030F48091000190910101049768F42C9A17
:1003D000E0910001F0910101EC5FFE4F80817FCF41
:1003E00031E0C5CF0197E1CF2C98F2CF1F921FB615
:1003F0001F9211248F939F93329B04C0109201018E
:1004000010920001339B06C08091020191E0892780
:10041000809302019F918F911F901FBE1F9018958E
:100420000E942802FFCFE82FF0E0E859FF4FE49147
:100430008BB18F708BB985B1807F85B99BB18E2FC1
:10044000807F892B8BB985B1EF70E82BE5B90895D2
:1004500080EF8AB98FE184B917B88DB383608DBB03
:10046000E9E6F0E08081886080837894ECE7F0E052
:10047000808186668083EAE7F0E08081836A8083FA
:0C0480008081806480830895F894FFCF91
:00000001FF
