:100000000C94B4000C94D7010C94D3000C94D10040
:100010000C94D1000C94D1000C94D1000C94D1001C
:100020000C94D1000C94D1000C94D1000C94D1000C
:100030000C94D1000C94D1000C94D1000C94D100FC
:100040000C94D1000C94D1000C94D1000C94D100EC
:100050000C94D1000C94D1000C94D1000C94D100DC
:100060000C94D1000C94D100008040C020A060E02E
:10007000109050D030B070F0088848C828A868E8C0
:10008000189858D838B878F8048444C424A464E490
:10009000149454D434B474F40C8C4CCC2CAC6CEC60
:1000A0001C9C5CDC3CBC7CFC028242C222A262E260
:1000B000129252D232B272F20A8A4ACA2AAA6AEA60
:1000C0001A9A5ADA3ABA7AFA068646C626A666E630
:1000D000169656D636B676F60E8E4ECE2EAE6EEE00
:1000E0001E9E5EDE3EBE7EFE018141C121A161E118
:1000F000119151D131B171F1098949C929A969E930
:10010000199959D939B979F9058545C525A565E5FF
:10011000159555D535B575F50D8D4DCD2DAD6DEDCF
:100120001D9D5DDD3DBD7DFD038343C323A363E3CF
:10013000139353D333B373F30B8B4BCB2BAB6BEBCF
:100140001B9B5BDB3BBB7BFB078747C727A767E79F
:10015000179757D737B777F70F8F4FCF2FAF6FEF6F
:100160001F9F5FDF3FBF7FFF11241FBECFEFD8E08F
:10017000DEBFCDBF11E0A0E0B1E0E8E6F4E002C0F0
:1001800005900D92A030B107D9F725E0A0E0B1E0CD
:1001900001C01D92A530B207E1F70E94FC010C944A
:1001A00032020C94000078941F920F920FB60F92B7
:1001B00011242F933F934F935F936F937F938F936C
:1001C0009F93AF93BF93EF93FF93309977C0349B86
:1001D00091C08091040181110DC081E080930401E0
:1001E0008091000190910101880F991F9093010166
:1001F00080930001319936C0359B71C02091000178
:1002000030910101C901969587958B5F9E4FFC0146
:10021000908120FD9295907F2091790096959695FA
:100220009695892F880F890F922F9695969596957A
:10023000292F220F220F920F890F40910001509118
:1002400001019A0136952795F901EB5FFE4F9081E8
:1002500040FF48C0907F82958F70890F2B5F3E4F83
:10026000F9018083809100019091010120910301A7
:100270002223E1F101969770909301018093000190
:1002800080910001909101018E3F974030F4809160
:10029000000190910101029758F52C9A20910001DC
:1002A00030910101C901969587958B5F9E4FFC01A6
:1002B000808120FD8295807F0E940502FF91EF9151
:1002C000BF91AF919F918F917F916F915F914F916E
:1002D0003F912F910F900FBE0F901F901895809116
:1002E0007900ABCF9F70807F892BB8CF0197C3CFA8
:1002F0002C98D4CF80910401882361F010920401DE
:10030000809100019091010196958795909301014C
:1003100080930001319920C0359B42C0E0910001DB
:10032000F0910101EB5FFE4F2081909179002695BD
:1003300026952695822F880F820F969596959695ED
:10034000292F220F220F920F890FE0910001F091C7
:100350000101EB5FFE4F80838091000190910101CC
:10036000209103012223F9F00196937090930101EB
:100370008093000180910001909101018E3F934094
:1003800030F48091000190910101029770F42C9A51
:10039000E0910001F0910101EB5FFE4F80818CCF75
:1003A00080917900D2CF0197E0CF2C98F1CF1F92A6
:1003B0001FB61F9211248F939F93329B10C0809180
:1003C0000201882361F01092010110920001109245
:1003D00002019F918F911F901FBE1F901895339B14
:1003E000F8CF809102018823A1F38091030191E06D
:1003F000892780930301EBCF0E94160291E086B11A
:100400008C70E9F790930201FACFE82FF0E0E859F9
:10041000FF4FE4918BB18F709E2F907F892B8BB90A
:1004200085B1807FEF708E2B85B9089580EF8AB9F2
:100430008FE184B917B88DB383608DBBE9E6F0E036
:100440008081886080837894ECE7F0E08081866624
:100450008083EAE7F0E08081836A80838081806422
:0804600080830895F894FFCF9A
:00000001FF
