:100000000C94B4000C944D010C94D3000C94D100CA
:100010000C94D1000C94D1000C94D1000C94D1001C
:100020000C94D1000C94D1000C94D1000C94D1000C
:100030000C94D1000C94D1000C94D1000C94D100FC
:100040000C94D1000C94D1000C94D1000C94D100EC
:100050000C94D1000C94D1000C94D1000C94D100DC
:100060000C94D1000C94D100008040C020A060E02E
:10007000109050D030B070F0088848C828A868E8C0
:10008000189858D838B878F8048444C424A464E490
:10009000149454D434B474F40C8C4CCC2CAC6CEC60
:1000A0001C9C5CDC3CBC7CFC028242C222A262E260
:1000B000129252D232B272F20A8A4ACA2AAA6AEA60
:1000C0001A9A5ADA3ABA7AFA068646C626A666E630
:1000D000169656D636B676F60E8E4ECE2EAE6EEE00
:1000E0001E9E5EDE3EBE7EFE018141C121A161E118
:1000F000119151D131B171F1098949C929A969E930
:10010000199959D939B979F9058545C525A565E5FF
:10011000159555D535B575F50D8D4DCD2DAD6DEDCF
:100120001D9D5DDD3DBD7DFD038343C323A363E3CF
:10013000139353D333B373F30B8B4BCB2BAB6BEBCF
:100140001B9B5BDB3BBB7BFB078747C727A767E79F
:10015000179757D737B777F70F8F4FCF2FAF6FEF6F
:100160001F9F5FDF3FBF7FFF11241FBECFEFD8E08F
:10017000DEBFCDBF11E0A0E0B1E0E0E4F3E002C0FB
:1001800005900D92A234B107D9F721E0A2E4B1E0C5
:1001900001C01D92A534B207E1F70E9464010C94DE
:1001A0009E010C9400001F920F920FB60F92112423
:1001B0002F933F934F935F936F937F938F939F936F
:1001C000AF93BF93EF93FF93349957C090E480911E
:1001D00044018F5F80934401891306C0109244014B
:1001E000809100018093010180910101811106C07D
:1001F0008091420191E08927809342014091420120
:10020000909101018091430121E030E0411120E013
:1002100001C0220F9A95EAF7820F80934301803440
:1002200010F010924301359B2AC020914401E091C7
:100230004301F0E0EE5FFE4F8081609179006160E4
:100240000E949201482F420F5527551FFA01EE5F79
:10025000FE4F80810E946701FF91EF91BF91AF91A6
:100260009F918F917F916F915F914F913F912F91CE
:100270000F900FBE0F901F90189590E2A8CFE091BD
:100280004401F0E0EE5FFE4F8081E0914301F0E039
:10029000EE5FFE4F90818927DDCF8F9330990CC0A0
:1002A00031990CC032990CC033990CC08091000177
:1002B000809300018F91189580E0FACF81E0F8CF0C
:1002C00082E0F6CF83E0F4CF0E947801FFCFE82FE1
:1002D000F0E0E859FF4FE49185B115B89BB18E2F3E
:1002E000807F892B8BB985B1EF70E82BE5B9089534
:1002F00080EF8AB98FE184B917B88DB383608DBB65
:10030000E9E6F0E080818F6080837894EAE7F0E0AE
:100310008081887F84608083ECE7F0E08081806268
:1003200080830895991B79E004C0991F961708F0FF
:10033000961B881F7A95C9F780950895F894FFCF8A
:100340000101808C98A5B0BCC7D1DAE2EAF0F6FAD8
:10035000FDFFFFFFFDFAF6F0EAE2DAD1C7BCB0A577
:10036000988C8073675A4F43382E251D150F090549
:10037000020000000205090F151D252E38434F5AB3
:020380006773A1
:00000001FF
